{
  "_format": "hh-sol-artifact-1",
  "contractName": "GPTMembership",
  "sourceName": "contracts/GPTMembership.sol",
  "abi": [
    {
      "inputs": [
        {
          "internalType": "string",
          "name": "_name",
          "type": "string"
        },
        {
          "internalType": "string",
          "name": "_symbol",
          "type": "string"
        }
      ],
      "stateMutability": "nonpayable",
      "type": "constructor"
    },
    {
      "anonymous": false,
      "inputs": [
        {
          "indexed": true,
          "internalType": "address",
          "name": "owner",
          "type": "address"
        },
        {
          "indexed": true,
          "internalType": "address",
          "name": "approved",
          "type": "address"
        },
        {
          "indexed": true,
          "internalType": "uint256",
          "name": "tokenId",
          "type": "uint256"
        }
      ],
      "name": "Approval",
      "type": "event"
    },
    {
      "anonymous": false,
      "inputs": [
        {
          "indexed": true,
          "internalType": "address",
          "name": "owner",
          "type": "address"
        },
        {
          "indexed": true,
          "internalType": "address",
          "name": "operator",
          "type": "address"
        },
        {
          "indexed": false,
          "internalType": "bool",
          "name": "approved",
          "type": "bool"
        }
      ],
      "name": "ApprovalForAll",
      "type": "event"
    },
    {
      "anonymous": false,
      "inputs": [
        {
          "indexed": true,
          "internalType": "address",
          "name": "from",
          "type": "address"
        },
        {
          "indexed": true,
          "internalType": "address",
          "name": "to",
          "type": "address"
        },
        {
          "indexed": true,
          "internalType": "uint256",
          "name": "tokenId",
          "type": "uint256"
        }
      ],
      "name": "Transfer",
      "type": "event"
    },
    {
      "inputs": [],
      "name": "MY_CONTRACT",
      "outputs": [
        {
          "internalType": "string",
          "name": "",
          "type": "string"
        }
      ],
      "stateMutability": "view",
      "type": "function"
    },
    {
      "inputs": [
        {
          "internalType": "address",
          "name": "to",
          "type": "address"
        },
        {
          "internalType": "uint256",
          "name": "tokenId",
          "type": "uint256"
        }
      ],
      "name": "approve",
      "outputs": [],
      "stateMutability": "nonpayable",
      "type": "function"
    },
    {
      "inputs": [
        {
          "internalType": "address",
          "name": "owner",
          "type": "address"
        }
      ],
      "name": "balanceOf",
      "outputs": [
        {
          "internalType": "uint256",
          "name": "",
          "type": "uint256"
        }
      ],
      "stateMutability": "view",
      "type": "function"
    },
    {
      "inputs": [
        {
          "internalType": "uint256",
          "name": "tokenId",
          "type": "uint256"
        }
      ],
      "name": "getApproved",
      "outputs": [
        {
          "internalType": "address",
          "name": "",
          "type": "address"
        }
      ],
      "stateMutability": "view",
      "type": "function"
    },
    {
      "inputs": [
        {
          "internalType": "uint256",
          "name": "_membershipId",
          "type": "uint256"
        }
      ],
      "name": "getMemberships",
      "outputs": [
        {
          "components": [
            {
              "internalType": "uint256",
              "name": "id",
              "type": "uint256"
            },
            {
              "internalType": "string",
              "name": "name",
              "type": "string"
            },
            {
              "internalType": "uint256",
              "name": "cost",
              "type": "uint256"
            },
            {
              "internalType": "string",
              "name": "date",
              "type": "string"
            }
          ],
          "internalType": "struct GPTMembership.Membership",
          "name": "",
          "type": "tuple"
        }
      ],
      "stateMutability": "view",
      "type": "function"
    },
    {
      "inputs": [
        {
          "internalType": "uint256",
          "name": "_membershipId",
          "type": "uint256"
        }
      ],
      "name": "getMembershipsTaken",
      "outputs": [
        {
          "internalType": "address[]",
          "name": "",
          "type": "address[]"
        }
      ],
      "stateMutability": "view",
      "type": "function"
    },
    {
      "inputs": [
        {
          "internalType": "address",
          "name": "_address",
          "type": "address"
        }
      ],
      "name": "getUsermembership",
      "outputs": [
        {
          "components": [
            {
              "internalType": "uint256",
              "name": "id",
              "type": "uint256"
            },
            {
              "internalType": "uint256",
              "name": "membershipId",
              "type": "uint256"
            },
            {
              "internalType": "address",
              "name": "addressUser",
              "type": "address"
            },
            {
              "internalType": "uint256",
              "name": "cost",
              "type": "uint256"
            },
            {
              "internalType": "string",
              "name": "expireDate",
              "type": "string"
            }
          ],
          "internalType": "struct GPTMembership.UserMembership",
          "name": "",
          "type": "tuple"
        }
      ],
      "stateMutability": "view",
      "type": "function"
    },
    {
      "inputs": [
        {
          "internalType": "address",
          "name": "owner",
          "type": "address"
        },
        {
          "internalType": "address",
          "name": "operator",
          "type": "address"
        }
      ],
      "name": "isApprovedForAll",
      "outputs": [
        {
          "internalType": "bool",
          "name": "",
          "type": "bool"
        }
      ],
      "stateMutability": "view",
      "type": "function"
    },
    {
      "inputs": [
        {
          "internalType": "string",
          "name": "_name",
          "type": "string"
        },
        {
          "internalType": "uint256",
          "name": "_cost",
          "type": "uint256"
        },
        {
          "internalType": "string",
          "name": "_date",
          "type": "string"
        }
      ],
      "name": "list",
      "outputs": [],
      "stateMutability": "nonpayable",
      "type": "function"
    },
    {
      "inputs": [],
      "name": "membershipTypes",
      "outputs": [
        {
          "internalType": "uint256",
          "name": "",
          "type": "uint256"
        }
      ],
      "stateMutability": "view",
      "type": "function"
    },
    {
      "inputs": [
        {
          "internalType": "uint256",
          "name": "",
          "type": "uint256"
        }
      ],
      "name": "memberships",
      "outputs": [
        {
          "internalType": "uint256",
          "name": "id",
          "type": "uint256"
        },
        {
          "internalType": "string",
          "name": "name",
          "type": "string"
        },
        {
          "internalType": "uint256",
          "name": "cost",
          "type": "uint256"
        },
        {
          "internalType": "string",
          "name": "date",
          "type": "string"
        }
      ],
      "stateMutability": "view",
      "type": "function"
    },
    {
      "inputs": [
        {
          "internalType": "uint256",
          "name": "",
          "type": "uint256"
        },
        {
          "internalType": "uint256",
          "name": "",
          "type": "uint256"
        },
        {
          "internalType": "uint256",
          "name": "",
          "type": "uint256"
        }
      ],
      "name": "membershipsTaken",
      "outputs": [
        {
          "internalType": "address",
          "name": "",
          "type": "address"
        }
      ],
      "stateMutability": "view",
      "type": "function"
    },
    {
      "inputs": [
        {
          "internalType": "uint256",
          "name": "_membershipId",
          "type": "uint256"
        },
        {
          "internalType": "address",
          "name": "_user",
          "type": "address"
        },
        {
          "internalType": "string",
          "name": "_expiredDate",
          "type": "string"
        }
      ],
      "name": "mint",
      "outputs": [],
      "stateMutability": "payable",
      "type": "function"
    },
    {
      "inputs": [],
      "name": "name",
      "outputs": [
        {
          "internalType": "string",
          "name": "",
          "type": "string"
        }
      ],
      "stateMutability": "view",
      "type": "function"
    },
    {
      "inputs": [],
      "name": "owner",
      "outputs": [
        {
          "internalType": "address",
          "name": "",
          "type": "address"
        }
      ],
      "stateMutability": "view",
      "type": "function"
    },
    {
      "inputs": [
        {
          "internalType": "uint256",
          "name": "tokenId",
          "type": "uint256"
        }
      ],
      "name": "ownerOf",
      "outputs": [
        {
          "internalType": "address",
          "name": "",
          "type": "address"
        }
      ],
      "stateMutability": "view",
      "type": "function"
    },
    {
      "inputs": [
        {
          "internalType": "address",
          "name": "from",
          "type": "address"
        },
        {
          "internalType": "address",
          "name": "to",
          "type": "address"
        },
        {
          "internalType": "uint256",
          "name": "tokenId",
          "type": "uint256"
        }
      ],
      "name": "safeTransferFrom",
      "outputs": [],
      "stateMutability": "nonpayable",
      "type": "function"
    },
    {
      "inputs": [
        {
          "internalType": "address",
          "name": "from",
          "type": "address"
        },
        {
          "internalType": "address",
          "name": "to",
          "type": "address"
        },
        {
          "internalType": "uint256",
          "name": "tokenId",
          "type": "uint256"
        },
        {
          "internalType": "bytes",
          "name": "data",
          "type": "bytes"
        }
      ],
      "name": "safeTransferFrom",
      "outputs": [],
      "stateMutability": "nonpayable",
      "type": "function"
    },
    {
      "inputs": [
        {
          "internalType": "address",
          "name": "operator",
          "type": "address"
        },
        {
          "internalType": "bool",
          "name": "approved",
          "type": "bool"
        }
      ],
      "name": "setApprovalForAll",
      "outputs": [],
      "stateMutability": "nonpayable",
      "type": "function"
    },
    {
      "inputs": [
        {
          "internalType": "bytes4",
          "name": "interfaceId",
          "type": "bytes4"
        }
      ],
      "name": "supportsInterface",
      "outputs": [
        {
          "internalType": "bool",
          "name": "",
          "type": "bool"
        }
      ],
      "stateMutability": "view",
      "type": "function"
    },
    {
      "inputs": [],
      "name": "symbol",
      "outputs": [
        {
          "internalType": "string",
          "name": "",
          "type": "string"
        }
      ],
      "stateMutability": "view",
      "type": "function"
    },
    {
      "inputs": [
        {
          "internalType": "uint256",
          "name": "tokenId",
          "type": "uint256"
        }
      ],
      "name": "tokenURI",
      "outputs": [
        {
          "internalType": "string",
          "name": "",
          "type": "string"
        }
      ],
      "stateMutability": "view",
      "type": "function"
    },
    {
      "inputs": [],
      "name": "totalMemberships",
      "outputs": [
        {
          "internalType": "uint256",
          "name": "",
          "type": "uint256"
        }
      ],
      "stateMutability": "view",
      "type": "function"
    },
    {
      "inputs": [
        {
          "internalType": "address",
          "name": "from",
          "type": "address"
        },
        {
          "internalType": "address",
          "name": "to",
          "type": "address"
        },
        {
          "internalType": "uint256",
          "name": "tokenId",
          "type": "uint256"
        }
      ],
      "name": "transferFrom",
      "outputs": [],
      "stateMutability": "nonpayable",
      "type": "function"
    },
    {
      "inputs": [
        {
          "internalType": "address",
          "name": "",
          "type": "address"
        }
      ],
      "name": "userMemberships",
      "outputs": [
        {
          "internalType": "uint256",
          "name": "id",
          "type": "uint256"
        },
        {
          "internalType": "uint256",
          "name": "membershipId",
          "type": "uint256"
        },
        {
          "internalType": "address",
          "name": "addressUser",
          "type": "address"
        },
        {
          "internalType": "uint256",
          "name": "cost",
          "type": "uint256"
        },
        {
          "internalType": "string",
          "name": "expireDate",
          "type": "string"
        }
      ],
      "stateMutability": "view",
      "type": "function"
    },
    {
      "inputs": [],
      "name": "withdraw",
      "outputs": [],
      "stateMutability": "nonpayable",
      "type": "function"
    }
  ],
  "bytecode": "0x60806040526040518060400160405280601281526020017f436172616962657320434f4e4e4558494f4e0000000000000000000000000000815250600990816200004a919062000369565b503480156200005857600080fd5b50604051620043883803806200438883398181016040528101906200007e9190620005b4565b8181816000908162000091919062000369565b508060019081620000a3919062000369565b50505033600660006101000a81548173ffffffffffffffffffffffffffffffffffffffff021916908373ffffffffffffffffffffffffffffffffffffffff160217905550505062000639565b600081519050919050565b7f4e487b7100000000000000000000000000000000000000000000000000000000600052604160045260246000fd5b7f4e487b7100000000000000000000000000000000000000000000000000000000600052602260045260246000fd5b600060028204905060018216806200017157607f821691505b60208210810362000187576200018662000129565b5b50919050565b60008190508160005260206000209050919050565b60006020601f8301049050919050565b600082821b905092915050565b600060088302620001f17fffffffffffffffffffffffffffffffffffffffffffffffffffffffffffffffff82620001b2565b620001fd8683620001b2565b95508019841693508086168417925050509392505050565b6000819050919050565b6000819050919050565b60006200024a620002446200023e8462000215565b6200021f565b62000215565b9050919050565b6000819050919050565b620002668362000229565b6200027e620002758262000251565b848454620001bf565b825550505050565b600090565b6200029562000286565b620002a28184846200025b565b505050565b5b81811015620002ca57620002be6000826200028b565b600181019050620002a8565b5050565b601f8211156200031957620002e3816200018d565b620002ee84620001a2565b81016020851015620002fe578190505b620003166200030d85620001a2565b830182620002a7565b50505b505050565b600082821c905092915050565b60006200033e600019846008026200031e565b1980831691505092915050565b60006200035983836200032b565b9150826002028217905092915050565b6200037482620000ef565b67ffffffffffffffff81111562000390576200038f620000fa565b5b6200039c825462000158565b620003a9828285620002ce565b600060209050601f831160018114620003e15760008415620003cc578287015190505b620003d885826200034b565b86555062000448565b601f198416620003f1866200018d565b60005b828110156200041b57848901518255600182019150602085019450602081019050620003f4565b868310156200043b578489015162000437601f8916826200032b565b8355505b6001600288020188555050505b505050505050565b6000604051905090565b600080fd5b600080fd5b600080fd5b600080fd5b6000601f19601f8301169050919050565b6200048a826200046e565b810181811067ffffffffffffffff82111715620004ac57620004ab620000fa565b5b80604052505050565b6000620004c162000450565b9050620004cf82826200047f565b919050565b600067ffffffffffffffff821115620004f257620004f1620000fa565b5b620004fd826200046e565b9050602081019050919050565b60005b838110156200052a5780820151818401526020810190506200050d565b60008484015250505050565b60006200054d6200054784620004d4565b620004b5565b9050828152602081018484840111156200056c576200056b62000469565b5b620005798482856200050a565b509392505050565b600082601f83011262000599576200059862000464565b5b8151620005ab84826020860162000536565b91505092915050565b60008060408385031215620005ce57620005cd6200045a565b5b600083015167ffffffffffffffff811115620005ef57620005ee6200045f565b5b620005fd8582860162000581565b925050602083015167ffffffffffffffff8111156200062157620006206200045f565b5b6200062f8582860162000581565b9150509250929050565b613d3f80620006496000396000f3fe6080604052600436106101815760003560e01c80638da5cb5b116100d1578063b88d4fde1161008a578063cdc461ad11610064578063cdc461ad146105d3578063e67e402c14610610578063e985e9c51461062c578063f9efde301461066957610181565b8063b88d4fde14610544578063bcd57d041461056d578063c87b56dd1461059657610181565b80638da5cb5b1461042e5780639485cfed1461045957806395d89b41146104845780639bb11c42146104af5780639d0669b1146104da578063a22cb4651461051b57610181565b80633ccfd60b1161013e578063556697da11610118578063556697da1461033a5780635ba3c9ee146103775780636352211e146103b457806370a08231146103f157610181565b80633ccfd60b146102bd57806342842e0e146102d457806350a128f5146102fd57610181565b806301ffc9a71461018657806306fdde03146101c3578063081812fc146101ee578063095ea7b31461022b57806323b872dd14610254578063321621d71461027d575b600080fd5b34801561019257600080fd5b506101ad60048036038101906101a8919061270a565b610694565b6040516101ba9190612752565b60405180910390f35b3480156101cf57600080fd5b506101d8610776565b6040516101e591906127fd565b60405180910390f35b3480156101fa57600080fd5b5061021560048036038101906102109190612855565b610808565b60405161022291906128c3565b60405180910390f35b34801561023757600080fd5b50610252600480360381019061024d919061290a565b61084e565b005b34801561026057600080fd5b5061027b6004803603810190610276919061294a565b610965565b005b34801561028957600080fd5b506102a4600480360381019061029f9190612855565b6109c5565b6040516102b494939291906129ac565b60405180910390f35b3480156102c957600080fd5b506102d2610b05565b005b3480156102e057600080fd5b506102fb60048036038101906102f6919061294a565b610c30565b005b34801561030957600080fd5b50610324600480360381019061031f91906129ff565b610c50565b60405161033191906128c3565b60405180910390f35b34801561034657600080fd5b50610361600480360381019061035c9190612855565b610cab565b60405161036e9190612b15565b60405180910390f35b34801561038357600080fd5b5061039e60048036038101906103999190612b37565b610e10565b6040516103ab9190612be9565b60405180910390f35b3480156103c057600080fd5b506103db60048036038101906103d69190612855565b610f6f565b6040516103e891906128c3565b60405180910390f35b3480156103fd57600080fd5b5061041860048036038101906104139190612b37565b610ff5565b6040516104259190612c0b565b60405180910390f35b34801561043a57600080fd5b506104436110ac565b60405161045091906128c3565b60405180910390f35b34801561046557600080fd5b5061046e6110d2565b60405161047b9190612c0b565b60405180910390f35b34801561049057600080fd5b506104996110d8565b6040516104a691906127fd565b60405180910390f35b3480156104bb57600080fd5b506104c461116a565b6040516104d19190612c0b565b60405180910390f35b3480156104e657600080fd5b5061050160048036038101906104fc9190612b37565b611170565b604051610512959493929190612c26565b60405180910390f35b34801561052757600080fd5b50610542600480360381019061053d9190612cac565b61124e565b005b34801561055057600080fd5b5061056b60048036038101906105669190612e21565b611264565b005b34801561057957600080fd5b50610594600480360381019061058f9190612f45565b6112c6565b005b3480156105a257600080fd5b506105bd60048036038101906105b89190612855565b6113ee565b6040516105ca91906127fd565b60405180910390f35b3480156105df57600080fd5b506105fa60048036038101906105f59190612855565b611456565b604051610607919061307f565b60405180910390f35b61062a600480360381019061062591906130a1565b61150a565b005b34801561063857600080fd5b50610653600480360381019061064e9190613110565b611741565b6040516106609190612752565b60405180910390f35b34801561067557600080fd5b5061067e6117d5565b60405161068b91906127fd565b60405180910390f35b60007f80ac58cd000000000000000000000000000000000000000000000000000000007bffffffffffffffffffffffffffffffffffffffffffffffffffffffff1916827bffffffffffffffffffffffffffffffffffffffffffffffffffffffff1916148061075f57507f5b5e139f000000000000000000000000000000000000000000000000000000007bffffffffffffffffffffffffffffffffffffffffffffffffffffffff1916827bffffffffffffffffffffffffffffffffffffffffffffffffffffffff1916145b8061076f575061076e82611863565b5b9050919050565b6060600080546107859061317f565b80601f01602080910402602001604051908101604052809291908181526020018280546107b19061317f565b80156107fe5780601f106107d3576101008083540402835291602001916107fe565b820191906000526020600020905b8154815290600101906020018083116107e157829003601f168201915b5050505050905090565b6000610813826118cd565b6004600083815260200190815260200160002060009054906101000a900473ffffffffffffffffffffffffffffffffffffffff169050919050565b600061085982610f6f565b90508073ffffffffffffffffffffffffffffffffffffffff168373ffffffffffffffffffffffffffffffffffffffff16036108c9576040517f08c379a00000000000000000000000000000000000000000000000000000000081526004016108c090613222565b60405180910390fd5b8073ffffffffffffffffffffffffffffffffffffffff166108e8611918565b73ffffffffffffffffffffffffffffffffffffffff161480610917575061091681610911611918565b611741565b5b610956576040517f08c379a000000000000000000000000000000000000000000000000000000000815260040161094d906132b4565b60405180910390fd5b6109608383611920565b505050565b610976610970611918565b826119d9565b6109b5576040517f08c379a00000000000000000000000000000000000000000000000000000000081526004016109ac90613346565b60405180910390fd5b6109c0838383611a6e565b505050565b600b6020528060005260406000206000915090508060000154908060010180546109ee9061317f565b80601f0160208091040260200160405190810160405280929190818152602001828054610a1a9061317f565b8015610a675780601f10610a3c57610100808354040283529160200191610a67565b820191906000526020600020905b815481529060010190602001808311610a4a57829003601f168201915b505050505090806002015490806003018054610a829061317f565b80601f0160208091040260200160405190810160405280929190818152602001828054610aae9061317f565b8015610afb5780601f10610ad057610100808354040283529160200191610afb565b820191906000526020600020905b815481529060010190602001808311610ade57829003601f168201915b5050505050905084565b600660009054906101000a900473ffffffffffffffffffffffffffffffffffffffff1673ffffffffffffffffffffffffffffffffffffffff163373ffffffffffffffffffffffffffffffffffffffff1614610b95576040517f08c379a0000000000000000000000000000000000000000000000000000000008152600401610b8c906133d8565b60405180910390fd5b6000600660009054906101000a900473ffffffffffffffffffffffffffffffffffffffff1673ffffffffffffffffffffffffffffffffffffffff1647604051610bdd90613429565b60006040518083038185875af1925050503d8060008114610c1a576040519150601f19603f3d011682016040523d82523d6000602084013e610c1f565b606091505b5050905080610c2d57600080fd5b50565b610c4b83838360405180602001604052806000815250611264565b505050565b600c6020528260005260406000206020528160005260406000208181548110610c7857600080fd5b90600052602060002001600092509250509054906101000a900473ffffffffffffffffffffffffffffffffffffffff1681565b610cb3612631565b600b600083815260200190815260200160002060405180608001604052908160008201548152602001600182018054610ceb9061317f565b80601f0160208091040260200160405190810160405280929190818152602001828054610d179061317f565b8015610d645780601f10610d3957610100808354040283529160200191610d64565b820191906000526020600020905b815481529060010190602001808311610d4757829003601f168201915b5050505050815260200160028201548152602001600382018054610d879061317f565b80601f0160208091040260200160405190810160405280929190818152602001828054610db39061317f565b8015610e005780601f10610dd557610100808354040283529160200191610e00565b820191906000526020600020905b815481529060010190602001808311610de357829003601f168201915b5050505050815250509050919050565b610e18612659565b600a60008373ffffffffffffffffffffffffffffffffffffffff1673ffffffffffffffffffffffffffffffffffffffff1681526020019081526020016000206040518060a001604052908160008201548152602001600182015481526020016002820160009054906101000a900473ffffffffffffffffffffffffffffffffffffffff1673ffffffffffffffffffffffffffffffffffffffff1673ffffffffffffffffffffffffffffffffffffffff16815260200160038201548152602001600482018054610ee69061317f565b80601f0160208091040260200160405190810160405280929190818152602001828054610f129061317f565b8015610f5f5780601f10610f3457610100808354040283529160200191610f5f565b820191906000526020600020905b815481529060010190602001808311610f4257829003601f168201915b5050505050815250509050919050565b600080610f7b83611d67565b9050600073ffffffffffffffffffffffffffffffffffffffff168173ffffffffffffffffffffffffffffffffffffffff1603610fec576040517f08c379a0000000000000000000000000000000000000000000000000000000008152600401610fe39061348a565b60405180910390fd5b80915050919050565b60008073ffffffffffffffffffffffffffffffffffffffff168273ffffffffffffffffffffffffffffffffffffffff1603611065576040517f08c379a000000000000000000000000000000000000000000000000000000000815260040161105c9061351c565b60405180910390fd5b600360008373ffffffffffffffffffffffffffffffffffffffff1673ffffffffffffffffffffffffffffffffffffffff168152602001908152602001600020549050919050565b600660009054906101000a900473ffffffffffffffffffffffffffffffffffffffff1681565b60075481565b6060600180546110e79061317f565b80601f01602080910402602001604051908101604052809291908181526020018280546111139061317f565b80156111605780601f1061113557610100808354040283529160200191611160565b820191906000526020600020905b81548152906001019060200180831161114357829003601f168201915b5050505050905090565b60085481565b600a6020528060005260406000206000915090508060000154908060010154908060020160009054906101000a900473ffffffffffffffffffffffffffffffffffffffff16908060030154908060040180546111cb9061317f565b80601f01602080910402602001604051908101604052809291908181526020018280546111f79061317f565b80156112445780601f1061121957610100808354040283529160200191611244565b820191906000526020600020905b81548152906001019060200180831161122757829003601f168201915b5050505050905085565b611260611259611918565b8383611da4565b5050565b61127561126f611918565b836119d9565b6112b4576040517f08c379a00000000000000000000000000000000000000000000000000000000081526004016112ab90613346565b60405180910390fd5b6112c084848484611f10565b50505050565b600660009054906101000a900473ffffffffffffffffffffffffffffffffffffffff1673ffffffffffffffffffffffffffffffffffffffff163373ffffffffffffffffffffffffffffffffffffffff1614611356576040517f08c379a000000000000000000000000000000000000000000000000000000000815260040161134d906133d8565b60405180910390fd5b600760008154809291906113699061356b565b91905055506040518060800160405280600754815260200184815260200183815260200182815250600b600060075481526020019081526020016000206000820151816000015560208201518160010190816113c5919061375f565b506040820151816002015560608201518160030190816113e5919061375f565b50905050505050565b60606113f9826118cd565b6000611403611f6c565b90506000815111611423576040518060200160405280600081525061144e565b8061142d84611f83565b60405160200161143e92919061386d565b6040516020818303038152906040525b915050919050565b6060600c6000838152602001908152602001600020600060085481526020019081526020016000208054806020026020016040519081016040528092919081815260200182805480156114fe57602002820191906000526020600020905b8160009054906101000a900473ffffffffffffffffffffffffffffffffffffffff1673ffffffffffffffffffffffffffffffffffffffff16815260200190600101908083116114b4575b50505050509050919050565b6000830361151757600080fd5b60075483111561152657600080fd5b600b60008481526020019081526020016000206002015434101561157f576040517f08c379a0000000000000000000000000000000000000000000000000000000008152600401611576906138dd565b60405180910390fd5b600860008154809291906115929061356b565b91905055506040518060a0016040528060085481526020018481526020018373ffffffffffffffffffffffffffffffffffffffff168152602001600b600086815260200190815260200160002060020154815260200182815250600a60008473ffffffffffffffffffffffffffffffffffffffff1673ffffffffffffffffffffffffffffffffffffffff168152602001908152602001600020600082015181600001556020820151816001015560408201518160020160006101000a81548173ffffffffffffffffffffffffffffffffffffffff021916908373ffffffffffffffffffffffffffffffffffffffff1602179055506060820151816003015560808201518160040190816116a5919061375f565b50905050600c600084815260200190815260200160002060006008548152602001908152602001600020829080600181540180825580915050600190039060005260206000200160009091909190916101000a81548173ffffffffffffffffffffffffffffffffffffffff021916908373ffffffffffffffffffffffffffffffffffffffff16021790555061173c82600854612051565b505050565b6000600560008473ffffffffffffffffffffffffffffffffffffffff1673ffffffffffffffffffffffffffffffffffffffff16815260200190815260200160002060008373ffffffffffffffffffffffffffffffffffffffff1673ffffffffffffffffffffffffffffffffffffffff16815260200190815260200160002060009054906101000a900460ff16905092915050565b600980546117e29061317f565b80601f016020809104026020016040519081016040528092919081815260200182805461180e9061317f565b801561185b5780601f106118305761010080835404028352916020019161185b565b820191906000526020600020905b81548152906001019060200180831161183e57829003601f168201915b505050505081565b60007f01ffc9a7000000000000000000000000000000000000000000000000000000007bffffffffffffffffffffffffffffffffffffffffffffffffffffffff1916827bffffffffffffffffffffffffffffffffffffffffffffffffffffffff1916149050919050565b6118d68161206f565b611915576040517f08c379a000000000000000000000000000000000000000000000000000000000815260040161190c9061348a565b60405180910390fd5b50565b600033905090565b816004600083815260200190815260200160002060006101000a81548173ffffffffffffffffffffffffffffffffffffffff021916908373ffffffffffffffffffffffffffffffffffffffff160217905550808273ffffffffffffffffffffffffffffffffffffffff1661199383610f6f565b73ffffffffffffffffffffffffffffffffffffffff167f8c5be1e5ebec7d5bd14f71427d1e84f3dd0314c0f7b2291e5b200ac8c7c3b92560405160405180910390a45050565b6000806119e583610f6f565b90508073ffffffffffffffffffffffffffffffffffffffff168473ffffffffffffffffffffffffffffffffffffffff161480611a275750611a268185611741565b5b80611a6557508373ffffffffffffffffffffffffffffffffffffffff16611a4d84610808565b73ffffffffffffffffffffffffffffffffffffffff16145b91505092915050565b8273ffffffffffffffffffffffffffffffffffffffff16611a8e82610f6f565b73ffffffffffffffffffffffffffffffffffffffff1614611ae4576040517f08c379a0000000000000000000000000000000000000000000000000000000008152600401611adb9061396f565b60405180910390fd5b600073ffffffffffffffffffffffffffffffffffffffff168273ffffffffffffffffffffffffffffffffffffffff1603611b53576040517f08c379a0000000000000000000000000000000000000000000000000000000008152600401611b4a90613a01565b60405180910390fd5b611b6083838360016120b0565b8273ffffffffffffffffffffffffffffffffffffffff16611b8082610f6f565b73ffffffffffffffffffffffffffffffffffffffff1614611bd6576040517f08c379a0000000000000000000000000000000000000000000000000000000008152600401611bcd9061396f565b60405180910390fd5b6004600082815260200190815260200160002060006101000a81549073ffffffffffffffffffffffffffffffffffffffff02191690556001600360008573ffffffffffffffffffffffffffffffffffffffff1673ffffffffffffffffffffffffffffffffffffffff168152602001908152602001600020600082825403925050819055506001600360008473ffffffffffffffffffffffffffffffffffffffff1673ffffffffffffffffffffffffffffffffffffffff16815260200190815260200160002060008282540192505081905550816002600083815260200190815260200160002060006101000a81548173ffffffffffffffffffffffffffffffffffffffff021916908373ffffffffffffffffffffffffffffffffffffffff160217905550808273ffffffffffffffffffffffffffffffffffffffff168473ffffffffffffffffffffffffffffffffffffffff167fddf252ad1be2c89b69c2b068fc378daa952ba7f163c4a11628f55a4df523b3ef60405160405180910390a4611d6283838360016120b6565b505050565b60006002600083815260200190815260200160002060009054906101000a900473ffffffffffffffffffffffffffffffffffffffff169050919050565b8173ffffffffffffffffffffffffffffffffffffffff168373ffffffffffffffffffffffffffffffffffffffff1603611e12576040517f08c379a0000000000000000000000000000000000000000000000000000000008152600401611e0990613a6d565b60405180910390fd5b80600560008573ffffffffffffffffffffffffffffffffffffffff1673ffffffffffffffffffffffffffffffffffffffff16815260200190815260200160002060008473ffffffffffffffffffffffffffffffffffffffff1673ffffffffffffffffffffffffffffffffffffffff16815260200190815260200160002060006101000a81548160ff0219169083151502179055508173ffffffffffffffffffffffffffffffffffffffff168373ffffffffffffffffffffffffffffffffffffffff167f17307eab39ab6107e8899845ad3d59bd9653f200f220920489ca2b5937696c3183604051611f039190612752565b60405180910390a3505050565b611f1b848484611a6e565b611f27848484846120bc565b611f66576040517f08c379a0000000000000000000000000000000000000000000000000000000008152600401611f5d90613aff565b60405180910390fd5b50505050565b606060405180602001604052806000815250905090565b606060006001611f9284612243565b01905060008167ffffffffffffffff811115611fb157611fb0612cf6565b5b6040519080825280601f01601f191660200182016040528015611fe35781602001600182028036833780820191505090505b509050600082602001820190505b600115612046578080600190039150507f3031323334353637383961626364656600000000000000000000000000000000600a86061a8153600a858161203a57612039613b1f565b5b04945060008503611ff1575b819350505050919050565b61206b828260405180602001604052806000815250612396565b5050565b60008073ffffffffffffffffffffffffffffffffffffffff1661209183611d67565b73ffffffffffffffffffffffffffffffffffffffff1614159050919050565b50505050565b50505050565b60006120dd8473ffffffffffffffffffffffffffffffffffffffff166123f1565b15612236578373ffffffffffffffffffffffffffffffffffffffff1663150b7a02612106611918565b8786866040518563ffffffff1660e01b81526004016121289493929190613ba3565b6020604051808303816000875af192505050801561216457506040513d601f19601f820116820180604052508101906121619190613c04565b60015b6121e6573d8060008114612194576040519150601f19603f3d011682016040523d82523d6000602084013e612199565b606091505b5060008151036121de576040517f08c379a00000000000000000000000000000000000000000000000000000000081526004016121d590613aff565b60405180910390fd5b805181602001fd5b63150b7a0260e01b7bffffffffffffffffffffffffffffffffffffffffffffffffffffffff1916817bffffffffffffffffffffffffffffffffffffffffffffffffffffffff19161491505061223b565b600190505b949350505050565b600080600090507a184f03e93ff9f4daa797ed6e38ed64bf6a1f01000000000000000083106122a1577a184f03e93ff9f4daa797ed6e38ed64bf6a1f010000000000000000838161229757612296613b1f565b5b0492506040810190505b6d04ee2d6d415b85acef810000000083106122de576d04ee2d6d415b85acef810000000083816122d4576122d3613b1f565b5b0492506020810190505b662386f26fc10000831061230d57662386f26fc10000838161230357612302613b1f565b5b0492506010810190505b6305f5e1008310612336576305f5e100838161232c5761232b613b1f565b5b0492506008810190505b612710831061235b57612710838161235157612350613b1f565b5b0492506004810190505b6064831061237e576064838161237457612373613b1f565b5b0492506002810190505b600a831061238d576001810190505b80915050919050565b6123a08383612414565b6123ad60008484846120bc565b6123ec576040517f08c379a00000000000000000000000000000000000000000000000000000000081526004016123e390613aff565b60405180910390fd5b505050565b6000808273ffffffffffffffffffffffffffffffffffffffff163b119050919050565b600073ffffffffffffffffffffffffffffffffffffffff168273ffffffffffffffffffffffffffffffffffffffff1603612483576040517f08c379a000000000000000000000000000000000000000000000000000000000815260040161247a90613c7d565b60405180910390fd5b61248c8161206f565b156124cc576040517f08c379a00000000000000000000000000000000000000000000000000000000081526004016124c390613ce9565b60405180910390fd5b6124da6000838360016120b0565b6124e38161206f565b15612523576040517f08c379a000000000000000000000000000000000000000000000000000000000815260040161251a90613ce9565b60405180910390fd5b6001600360008473ffffffffffffffffffffffffffffffffffffffff1673ffffffffffffffffffffffffffffffffffffffff16815260200190815260200160002060008282540192505081905550816002600083815260200190815260200160002060006101000a81548173ffffffffffffffffffffffffffffffffffffffff021916908373ffffffffffffffffffffffffffffffffffffffff160217905550808273ffffffffffffffffffffffffffffffffffffffff16600073ffffffffffffffffffffffffffffffffffffffff167fddf252ad1be2c89b69c2b068fc378daa952ba7f163c4a11628f55a4df523b3ef60405160405180910390a461262d6000838360016120b6565b5050565b6040518060800160405280600081526020016060815260200160008152602001606081525090565b6040518060a001604052806000815260200160008152602001600073ffffffffffffffffffffffffffffffffffffffff16815260200160008152602001606081525090565b6000604051905090565b600080fd5b600080fd5b60007fffffffff0000000000000000000000000000000000000000000000000000000082169050919050565b6126e7816126b2565b81146126f257600080fd5b50565b600081359050612704816126de565b92915050565b6000602082840312156127205761271f6126a8565b5b600061272e848285016126f5565b91505092915050565b60008115159050919050565b61274c81612737565b82525050565b60006020820190506127676000830184612743565b92915050565b600081519050919050565b600082825260208201905092915050565b60005b838110156127a757808201518184015260208101905061278c565b60008484015250505050565b6000601f19601f8301169050919050565b60006127cf8261276d565b6127d98185612778565b93506127e9818560208601612789565b6127f2816127b3565b840191505092915050565b6000602082019050818103600083015261281781846127c4565b905092915050565b6000819050919050565b6128328161281f565b811461283d57600080fd5b50565b60008135905061284f81612829565b92915050565b60006020828403121561286b5761286a6126a8565b5b600061287984828501612840565b91505092915050565b600073ffffffffffffffffffffffffffffffffffffffff82169050919050565b60006128ad82612882565b9050919050565b6128bd816128a2565b82525050565b60006020820190506128d860008301846128b4565b92915050565b6128e7816128a2565b81146128f257600080fd5b50565b600081359050612904816128de565b92915050565b60008060408385031215612921576129206126a8565b5b600061292f858286016128f5565b925050602061294085828601612840565b9150509250929050565b600080600060608486031215612963576129626126a8565b5b6000612971868287016128f5565b9350506020612982868287016128f5565b925050604061299386828701612840565b9150509250925092565b6129a68161281f565b82525050565b60006080820190506129c1600083018761299d565b81810360208301526129d381866127c4565b90506129e2604083018561299d565b81810360608301526129f481846127c4565b905095945050505050565b600080600060608486031215612a1857612a176126a8565b5b6000612a2686828701612840565b9350506020612a3786828701612840565b9250506040612a4886828701612840565b9150509250925092565b612a5b8161281f565b82525050565b600082825260208201905092915050565b6000612a7d8261276d565b612a878185612a61565b9350612a97818560208601612789565b612aa0816127b3565b840191505092915050565b6000608083016000830151612ac36000860182612a52565b5060208301518482036020860152612adb8282612a72565b9150506040830151612af06040860182612a52565b5060608301518482036060860152612b088282612a72565b9150508091505092915050565b60006020820190508181036000830152612b2f8184612aab565b905092915050565b600060208284031215612b4d57612b4c6126a8565b5b6000612b5b848285016128f5565b91505092915050565b612b6d816128a2565b82525050565b600060a083016000830151612b8b6000860182612a52565b506020830151612b9e6020860182612a52565b506040830151612bb16040860182612b64565b506060830151612bc46060860182612a52565b5060808301518482036080860152612bdc8282612a72565b9150508091505092915050565b60006020820190508181036000830152612c038184612b73565b905092915050565b6000602082019050612c20600083018461299d565b92915050565b600060a082019050612c3b600083018861299d565b612c48602083018761299d565b612c5560408301866128b4565b612c62606083018561299d565b8181036080830152612c7481846127c4565b90509695505050505050565b612c8981612737565b8114612c9457600080fd5b50565b600081359050612ca681612c80565b92915050565b60008060408385031215612cc357612cc26126a8565b5b6000612cd1858286016128f5565b9250506020612ce285828601612c97565b9150509250929050565b600080fd5b600080fd5b7f4e487b7100000000000000000000000000000000000000000000000000000000600052604160045260246000fd5b612d2e826127b3565b810181811067ffffffffffffffff82111715612d4d57612d4c612cf6565b5b80604052505050565b6000612d6061269e565b9050612d6c8282612d25565b919050565b600067ffffffffffffffff821115612d8c57612d8b612cf6565b5b612d95826127b3565b9050602081019050919050565b82818337600083830152505050565b6000612dc4612dbf84612d71565b612d56565b905082815260208101848484011115612de057612ddf612cf1565b5b612deb848285612da2565b509392505050565b600082601f830112612e0857612e07612cec565b5b8135612e18848260208601612db1565b91505092915050565b60008060008060808587031215612e3b57612e3a6126a8565b5b6000612e49878288016128f5565b9450506020612e5a878288016128f5565b9350506040612e6b87828801612840565b925050606085013567ffffffffffffffff811115612e8c57612e8b6126ad565b5b612e9887828801612df3565b91505092959194509250565b600067ffffffffffffffff821115612ebf57612ebe612cf6565b5b612ec8826127b3565b9050602081019050919050565b6000612ee8612ee384612ea4565b612d56565b905082815260208101848484011115612f0457612f03612cf1565b5b612f0f848285612da2565b509392505050565b600082601f830112612f2c57612f2b612cec565b5b8135612f3c848260208601612ed5565b91505092915050565b600080600060608486031215612f5e57612f5d6126a8565b5b600084013567ffffffffffffffff811115612f7c57612f7b6126ad565b5b612f8886828701612f17565b9350506020612f9986828701612840565b925050604084013567ffffffffffffffff811115612fba57612fb96126ad565b5b612fc686828701612f17565b9150509250925092565b600081519050919050565b600082825260208201905092915050565b6000819050602082019050919050565b60006130088383612b64565b60208301905092915050565b6000602082019050919050565b600061302c82612fd0565b6130368185612fdb565b935061304183612fec565b8060005b838110156130725781516130598882612ffc565b975061306483613014565b925050600181019050613045565b5085935050505092915050565b600060208201905081810360008301526130998184613021565b905092915050565b6000806000606084860312156130ba576130b96126a8565b5b60006130c886828701612840565b93505060206130d9868287016128f5565b925050604084013567ffffffffffffffff8111156130fa576130f96126ad565b5b61310686828701612f17565b9150509250925092565b60008060408385031215613127576131266126a8565b5b6000613135858286016128f5565b9250506020613146858286016128f5565b9150509250929050565b7f4e487b7100000000000000000000000000000000000000000000000000000000600052602260045260246000fd5b6000600282049050600182168061319757607f821691505b6020821081036131aa576131a9613150565b5b50919050565b7f4552433732313a20617070726f76616c20746f2063757272656e74206f776e6560008201527f7200000000000000000000000000000000000000000000000000000000000000602082015250565b600061320c602183612778565b9150613217826131b0565b604082019050919050565b6000602082019050818103600083015261323b816131ff565b9050919050565b7f4552433732313a20617070726f76652063616c6c6572206973206e6f7420746f60008201527f6b656e206f776e6572206f7220617070726f76656420666f7220616c6c000000602082015250565b600061329e603d83612778565b91506132a982613242565b604082019050919050565b600060208201905081810360008301526132cd81613291565b9050919050565b7f4552433732313a2063616c6c6572206973206e6f7420746f6b656e206f776e6560008201527f72206f7220617070726f76656400000000000000000000000000000000000000602082015250565b6000613330602d83612778565b915061333b826132d4565b604082019050919050565b6000602082019050818103600083015261335f81613323565b9050919050565b7f5365756c656d656e74206c276f776e6572207065757420617070656c6572206360008201527f6574746520666f6e6374696f6e00000000000000000000000000000000000000602082015250565b60006133c2602d83612778565b91506133cd82613366565b604082019050919050565b600060208201905081810360008301526133f1816133b5565b9050919050565b600081905092915050565b50565b60006134136000836133f8565b915061341e82613403565b600082019050919050565b600061343482613406565b9150819050919050565b7f4552433732313a20696e76616c696420746f6b656e2049440000000000000000600082015250565b6000613474601883612778565b915061347f8261343e565b602082019050919050565b600060208201905081810360008301526134a381613467565b9050919050565b7f4552433732313a2061646472657373207a65726f206973206e6f74206120766160008201527f6c6964206f776e65720000000000000000000000000000000000000000000000602082015250565b6000613506602983612778565b9150613511826134aa565b604082019050919050565b60006020820190508181036000830152613535816134f9565b9050919050565b7f4e487b7100000000000000000000000000000000000000000000000000000000600052601160045260246000fd5b60006135768261281f565b91507fffffffffffffffffffffffffffffffffffffffffffffffffffffffffffffffff82036135a8576135a761353c565b5b600182019050919050565b60008190508160005260206000209050919050565b60006020601f8301049050919050565b600082821b905092915050565b6000600883026136157fffffffffffffffffffffffffffffffffffffffffffffffffffffffffffffffff826135d8565b61361f86836135d8565b95508019841693508086168417925050509392505050565b6000819050919050565b600061365c6136576136528461281f565b613637565b61281f565b9050919050565b6000819050919050565b61367683613641565b61368a61368282613663565b8484546135e5565b825550505050565b600090565b61369f613692565b6136aa81848461366d565b505050565b5b818110156136ce576136c3600082613697565b6001810190506136b0565b5050565b601f821115613713576136e4816135b3565b6136ed846135c8565b810160208510156136fc578190505b613710613708856135c8565b8301826136af565b50505b505050565b600082821c905092915050565b600061373660001984600802613718565b1980831691505092915050565b600061374f8383613725565b9150826002028217905092915050565b6137688261276d565b67ffffffffffffffff81111561378157613780612cf6565b5b61378b825461317f565b6137968282856136d2565b600060209050601f8311600181146137c957600084156137b7578287015190505b6137c18582613743565b865550613829565b601f1984166137d7866135b3565b60005b828110156137ff578489015182556001820191506020850194506020810190506137da565b8683101561381c5784890151613818601f891682613725565b8355505b6001600288020188555050505b505050505050565b600081905092915050565b60006138478261276d565b6138518185613831565b9350613861818560208601612789565b80840191505092915050565b6000613879828561383c565b9150613885828461383c565b91508190509392505050565b7f42616c616e636520696e737566666973616e7465000000000000000000000000600082015250565b60006138c7601483612778565b91506138d282613891565b602082019050919050565b600060208201905081810360008301526138f6816138ba565b9050919050565b7f4552433732313a207472616e736665722066726f6d20696e636f72726563742060008201527f6f776e6572000000000000000000000000000000000000000000000000000000602082015250565b6000613959602583612778565b9150613964826138fd565b604082019050919050565b600060208201905081810360008301526139888161394c565b9050919050565b7f4552433732313a207472616e7366657220746f20746865207a65726f2061646460008201527f7265737300000000000000000000000000000000000000000000000000000000602082015250565b60006139eb602483612778565b91506139f68261398f565b604082019050919050565b60006020820190508181036000830152613a1a816139de565b9050919050565b7f4552433732313a20617070726f766520746f2063616c6c657200000000000000600082015250565b6000613a57601983612778565b9150613a6282613a21565b602082019050919050565b60006020820190508181036000830152613a8681613a4a565b9050919050565b7f4552433732313a207472616e7366657220746f206e6f6e20455243373231526560008201527f63656976657220696d706c656d656e7465720000000000000000000000000000602082015250565b6000613ae9603283612778565b9150613af482613a8d565b604082019050919050565b60006020820190508181036000830152613b1881613adc565b9050919050565b7f4e487b7100000000000000000000000000000000000000000000000000000000600052601260045260246000fd5b600081519050919050565b600082825260208201905092915050565b6000613b7582613b4e565b613b7f8185613b59565b9350613b8f818560208601612789565b613b98816127b3565b840191505092915050565b6000608082019050613bb860008301876128b4565b613bc560208301866128b4565b613bd2604083018561299d565b8181036060830152613be48184613b6a565b905095945050505050565b600081519050613bfe816126de565b92915050565b600060208284031215613c1a57613c196126a8565b5b6000613c2884828501613bef565b91505092915050565b7f4552433732313a206d696e7420746f20746865207a65726f2061646472657373600082015250565b6000613c67602083612778565b9150613c7282613c31565b602082019050919050565b60006020820190508181036000830152613c9681613c5a565b9050919050565b7f4552433732313a20746f6b656e20616c7265616479206d696e74656400000000600082015250565b6000613cd3601c83612778565b9150613cde82613c9d565b602082019050919050565b60006020820190508181036000830152613d0281613cc6565b905091905056fea2646970667358221220359391ba1a9bc3e3651ae4289c1f240ccf19237b24fc6ecea491df7b6fef542d64736f6c63430008110033",
  "linkReferences": {},
  "deployedLinkReferences": {}
}